:100000000C9434000C9488000C9462000C94510001
:100010000C9451000C9451000C9451000C9451001C
:100020000C9451000C9451000C9451000C9451000C
:100030000C9451000C9451000C9451000C945100FC
:100040000C9451000C9451000C9451000C945100EC
:100050000C9451000C9451000C9451000C945100DC
:100060000C9451000C94510011241FBECFEFD8E026
:10007000DEBFCDBF12E0A0E0B1E0E4EFFAE102C0E4
:1000800005900D92A23BB107D9F712E0A2EBB2E0C6
:1000900001C01D92A83BB107E1F70E94AE000C948D
:1000A000780D0C94000014B81AB88FEF8BB985B98D
:1000B0000895FC01218130E0908180E0282B392BCC
:1000C000C90108951F920F920FB60F9211242F931A
:1000D0003F934F935F936F937F938F939F93AF93D0
:1000E000BF93EF93FF9380E091E00E945501FF9151
:1000F000EF91BF91AF919F918F917F916F915F91A0
:100100004F913F912F910F900FBE0F901F90189518
:100110001F920F920FB60F9211242F933F934F937C
:100120005F936F937F938F939F93AF93BF93EF935F
:10013000FF938AE091E00E945501FF91EF91BF91FA
:10014000AF919F918F917F916F915F914F913F916F
:100150002F910F900FBE0F901F9018958F929F9226
:10016000AF92BF92CF92DF92FF920F931F93DF93D4
:10017000CF93CDB7DEB76A970FB6F894DEBF0FBE48
:10018000CDBF87E690E00E94420114B81AB88FEF05
:100190008BB985B9E091A101F091A201CE0103963E
:1001A00068E440E00995A98CBA8CCB84DC840F8587
:1001B0001889EF81F88586E960E00995EB89FC896B
:1001C00081E009958AE090E061E0F801099589E015
:1001D00090E060E0F8010995E989FA8981E00995E4
:1001E00088E090E060E0F801099581E08E010F5F02
:1001F0001F4FB801F6010995998180E02A8130E00E
:10020000822B932B0E9480018AE00E944D01ED8990
:10021000FE896EEA77E481EA91E40995EF89F88D29
:1002200060E070E080E090E00995F02E012F88EC0E
:10023000882E912C80E06F2D702FF60109958F2D5F
:10024000902FF501099564E670E00E94060CCB0141
:100250000E9447028EE20E944D018F2D902FF501E2
:10026000099564E670E00E94060C0E9447028AE04D
:100270000E944D0188E893E1F4013197F1F701976D
:10028000D9F7D8CF9093C5008093C40088E18093BC
:10029000C1008EE08093C2000895982F8091C00025
:1002A00085FFFCCF9093C6000895FC0107C08091A4
:1002B000C00085FFFCCF9093C600319690819923B2
:1002C000B1F70895382F32953F70482F4F703A306C
:1002D00010F420E301C027E34A3010F490E301C09A
:1002E00097E38091C00085FFFCCF230F2093C600C9
:1002F0008091C00085FFFCCF940F9093C6000895B5
:100300001F93182F892F0E946201812F0E94620182
:100310001F910895EF92FF920F931F937B018C0121
:10032000C801AA27BB270E948001C7010E94800143
:100330001F910F91FF90EF9008958091C00087FF6B
:10034000FCCF8091C60090E00895282F64E60E94BB
:10035000FA0B392F822F0E94FA0B282F205D832F52
:100360006AE00E94FA0B482F405D832F0E94FA0B2F
:10037000203339F08091C00085FFFCCF2093C60068
:1003800002C0403331F08091C00085FFFCCF409324
:10039000C6008091C00085FFFCCF905D9093C600A1
:1003A0000895982F87FF08C08091C00085FFFCCF7B
:1003B0008DE28093C6009195892F0E94A501089532
:1003C0001F939C0160E177E20E94060C482FE92F01
:1003D000C90160E177E20E94060C162F105D842FA0
:1003E0009E2F68EE73E00E94060C9C01842F9E2FC6
:1003F00068EE73E00E94060CF62FF05DC90164E61A
:1004000070E00E94060C482FE92FC90164E670E0F5
:100410000E94060C362F305D842F9E2F6AE070E01C
:100420000E94060C262F205D842F9E2F6AE070E02C
:100430000E94060C982F103339F08091C00085FF80
:10044000FCCF1093C60002C0F03339F08091C00099
:1004500085FFFCCFF093C60002C0303339F08091A5
:10046000C00085FFFCCF3093C60002C0203331F0BE
:100470008091C00085FFFCCF2093C6008091C00012
:1004800085FFFCCF905D9093C6001F9108959C015D
:1004900097FF0AC08091C00085FFFCCF8DE280935A
:1004A000C600309521953F4FC9010E94E001089593
:1004B0001092B90086E98093B800ECEBF0E08081FF
:1004C000846080830895DF93CF9300D00F92CDB7DF
:1004D000DEB720E030E040E851E40E9462070E946D
:1004E0003809E091B202F091B3028081882331F0A3
:1004F00023E0660F771F2A95E1F705C094E0660FA9
:10050000771F9A95E1F783E08983872F992787FDE5
:100510009A958A836B830680F781E02DCE01019640
:1005200063E070E009950F900F900F90CF91DF91ED
:100530000895DF93CF9300D00F92CDB7DEB720E0C0
:1005400030E040E851E40E9462070E943809E091DF
:10055000B202F091B3028081882331F053E0660F3C
:10056000771F5A95E1F705C044E0660F771F4A955B
:10057000E1F782E08983872F992787FD9A958A83FF
:100580006B830680F781E02DCE01019663E070E079
:1005900009950F900F900F90CF91DF910895FC0176
:1005A000A091B202B091B3028C916181E081882365
:1005B00091F066956695669570E08E2F90E0F5E077
:1005C000880F991FFA95E1F7682B792B80E160304D
:1005D000780790F010C062956F7070E08E2F90E0F9
:1005E000E4E0880F991FEA95E1F7682B792B88E002
:1005F0006030780708F0706F80E090E00E948C090E
:1006000020E030E048EC50E40E9462070E948C0534
:10061000CB010895DF93CF930F92CDB7DEB78983D7
:10062000E091B202F091B3020680F781E02DCE0195
:10063000019661E070E009950F90CF91DF910895E8
:1006400084EE8093BC00089584ED8093BC000895EF
:1006500084EC8093BC000895CF92DF92EF92FF92DA
:100660000F931F936C01E62EF42E81E490E00E941C
:10067000510C182F092F64E171E00E94680D88E188
:1006800090E00E94510CFC019093B3028093B2025F
:10069000F082E1821283038388E592E0958384836C
:1006A00084E694E0978386838AED93E09187808740
:1006B0008CE494E0938782878AEB94E09587848723
:1006C0008DE595E0978786878EE295E0918B808B0C
:1006D00083E692E0938B828B89E992E0958B848B01
:1006E0008FEC92E0978B868B85E08093690083E0A6
:1006F0008DBB7894C601BF0148E150E00E94560DC1
:10070000C6011F910F91FF90EF90DF90CF90089559
:100710002091B90030E0287F307090E0E091B20283
:10072000F091B3022817390729F48281938165E19A
:1007300071E004C0828193816BE271E00E94680DD8
:100740002091B90022952F703091B9003F702A3066
:1007500010F490E301C097E33A3010F480E301C055
:1007600087E3E091B202F091B3020280F381E02DC1
:10077000920F928FE091B202F091B3020280F38166
:10078000E02D830F838FE091B202F091B3020280DB
:10079000F381E02D8AE0848F08952091B90030E044
:1007A000287F307090E02817390719F0862F0E94B3
:1007B00088030895EF92FF920F931F93CF93DF93D7
:1007C000F62EE72E0E940A0384EE8093BC008091EF
:1007D000BC0087FFFCCF8091B900887F883041F052
:1007E0008091B900887F803119F080E00E948803F1
:1007F000E091B202F091B3028181880F8160809311
:10080000BB0084EC8093BC008091BC0087FFFCCFD0
:1008100080E468E40E94CD038F2D9E2D9C01E901A8
:1008200010E004EC0093BC008091BC0087FFFCCF7B
:100830008091BB0088838091B900887F803541F02A
:100840008091B900887F883519F088E30E94880379
:100850001F5F2196123031F784ED8093BC00E09148
:10086000B202F091B3020688F789E02D8F2D9E2DFC
:100870000995A0E0B0E0BC01CD010E948C0920E008
:1008800030E048EC52E40E945C08DF91CF911F9168
:100890000F91FF90EF900895DF93CF9300D0CDB7E5
:1008A000DEB781E0BE016F5F7F4F0E94DA038A816D
:1008B00090E0A5E096958795AA95E1F781700F9055
:1008C0000F90CF91DF910895DF92EF92FF920F93F7
:1008D0001F93CF93DF937C018B0184EE8093BC0048
:1008E0008091BC0087FFFCCF8091B900887F883061
:1008F00041F08091B900887F803119F080E00E943A
:100900008803E091B202F091B302818190E0880FF8
:10091000991F8093BB0084EC8093BC008091BC0045
:1009200087FFFCCF88E160E20E94CD03C0E0D0E009
:10093000B4ECDB2E11C0F701EC0FFD1F808180931A
:10094000BB00D092BC008091BC0087FFFCCF88E246
:1009500060E20E94CD032196C017D10764F384EDB5
:100960008093BC00DF91CF911F910F91FF90EF908A
:10097000DF900895FF920F931F93DF93CF9300D0E2
:1009800000D00F92CDB7DEB78C01F62E81E0BE010C
:100990006F5F7F4F0E94DA030530110559F4E09133
:1009A000B202F091B3028281938164E471E00E940B
:1009B000680D49C049812A814C832D830830110577
:1009C000D0F0980128503040FF2051F081E090E0B5
:1009D00002C0880F991F2A95E2F7482B4C8323C049
:1009E00081E090E002C0880F991F2A95E2F7809578
:1009F00084238C8318C0FF2059F081E090E0002E02
:100A000002C0880F991F0A94E2F7282B2D830BC090
:100A100081E090E0002E02C0880F991F0A94E2F74F
:100A2000809582238D8381E08B83CE01039663E0E2
:100A300070E00E9464040430110529F4E091B202D0
:100A4000F091B302F0820F900F900F900F900F90E3
:100A5000CF91DF911F910F91FF900895813021F484
:100A60008BE090E060E00BC0823021F48BE090E0FE
:100A700060E010C0843049F48BE090E061E00E94B7
:100A8000BA048CE090E060E00AC0883059F48BE052
:100A900090E061E00E94BA048CE090E061E00E9486
:100AA000BA040895E091B202F091B3028281938179
:100AB00064E671E00E94680D0895882321F48DE0BA
:100AC00090E060E00BC0813021F48DE090E060E0C8
:100AD00010C0843049F48DE090E061E00E94BA04D7
:100AE0008EE090E060E00AC0883059F48DE090E03C
:100AF00061E00E94BA048EE090E061E00E94BA04D6
:100B00000895E091B202F091B3028281938164E88A
:100B100071E00E94680D0895EF92FF920F931F936A
:100B20007B018C0120E030E040E05FE40E94080996
:100B300088238CF0C801B70120E030E040E05FE49A
:100B40000E9404070E9438099B01AC0120503040EC
:100B50004040504806C0C801B7010E9438099B01B7
:100B6000AC01B901CA011F910F91FF90EF90089558
:100B7000A0E0B0E0EEEBF5E00C941A0CDC012B01E8
:100B8000FA019C91923008F439C1EB0188818230DE
:100B900008F433C1943069F4843009F02FC1119600
:100BA0009C9111978981981709F428C1A3EAB1E0B3
:100BB00025C1843009F421C18230A9F4923009F0B2
:100BC0001DC19A01AD0188E0EA010990AE01E90179
:100BD00009929E018150C1F7E201898111969C9191
:100BE0008923818308C1923009F407C112962D90A0
:100BF0003C901397EB018A819B811496AD90BD9038
:100C0000CD90DC901797EC80FD800E811F819101C3
:100C1000281B390BB90137FF04C066277727621BF1
:100C2000730B603271050CF061C0121613066CF57F
:100C300037014801062E04C09694879477946794F0
:100C40000A94D2F721E030E040E050E004C0220FE7
:100C5000331F441F551F6A95D2F721503040404042
:100C600050402E213F2140235123211531054105BC
:100C7000510521F021E030E040E050E079018A01A7
:100C8000E628F728082919293CC0232BD1F1260E84
:100C9000371E35014601062E04C09694879477943A
:100CA00067940A94D2F721E030E040E050E004C0BD
:100CB000220F331F441F551F6A95D2F72150304031
:100CC000404050402A213B214C215D212115310516
:100CD0004105510521F021E030E040E050E05901AC
:100CE0006A01A628B728C828D9280BC08215930501
:100CF0002CF01C01AA24BB24650103C0EE24FF24B0
:100D0000870111969C91D20111968C91981709F444
:100D100045C0992339F0A80197012A193B094C09CC
:100D20005D0906C0A60195012E193F09400B510B24
:100D300057FD08C011823382228224833583468383
:100D400057831DC081E081833382228288279927BF
:100D5000DC01821B930BA40BB50B84839583A683C4
:100D6000B7830DC0220F331F441F551F24833583C3
:100D70004683578382819381019793838283248161
:100D8000358146815781DA01C9010197A109B1096D
:100D90008F5F9F4FAF4FBF4328F30BC091833382C8
:100DA0002282EA0CFB1C0C1D1D1DE482F5820683C9
:100DB000178383E08083248135814681578157FFE3
:100DC0001AC0C901AA2797FDA095BA2F817090700B
:100DD000A070B0705695479537952795822B932B29
:100DE000A42BB52B84839583A683B78382819381BB
:100DF000019693838283DF0101C0D201CD01CDB77B
:100E0000DEB7E2E10C94360CA0E2B0E0EAE0F7E0F5
:100E10000C94260C69837A838B839C832D833E8379
:100E20004F835887E9E0EE2EF12CEC0EFD1ECE012B
:100E30000196B7010E94290B8E010F5E1F4FCE0154
:100E40000596B8010E94290B8A8991E089278A8B2F
:100E5000C701B801AE01475E5F4F0E94B8050E940E
:100E6000540AA096E6E00C94420CA0E2B0E0EBE35A
:100E7000F7E00C94260C69837A838B839C832D8303
:100E80003E834F835887F9E0EF2EF12CEC0EFD1EC8
:100E9000CE010196B7010E94290B8E010F5E1F4FF4
:100EA000CE010596B8010E94290BC701B801AE0119
:100EB000475E5F4F0E94B8050E94540AA096E6E084
:100EC0000C94420CA0E2B0E0E8E6F7E00C941A0CB7
:100ED00069837A838B839C832D833E834F835887DA
:100EE000CE010196BE01675F7F4F0E94290BCE01A4
:100EF0000596BE016F5E7F4F0E94290B9985923047
:100F000088F089898230C8F0943019F4823051F425
:100F100004C0843029F4923081F483EA91E0C6C0A1
:100F2000923049F420E09A858A89981321E02A8733
:100F3000CE010996BBC0823049F420E09A858A89A7
:100F4000981321E02A8BCE014196B0C02D843E84B7
:100F50004F8458886D887E888F88988CEE24FF2473
:100F60008701AA24BB24650140E050E060E070E006
:100F7000E0E0F0E0C10181709070892BE9F0E60CAF
:100F8000F71C081D191D9A01AB012A0D3B1D4C1DB4
:100F90005D1D80E090E0A0E0B0E0E614F7040805F5
:100FA000190520F481E090E0A0E0B0E0BA01A901C9
:100FB000480F591F6A1F7B1FAA0CBB1CCC1CDD1CD1
:100FC00097FE08C081E090E0A0E0B0E0A82AB92A2E
:100FD000CA2ADB2A3196E032F10549F0660C771C0B
:100FE000881C991C5694479437942794C3CFFA854C
:100FF000EA892B893C898B859C85280F391F2E5FB8
:101000003F4F17C0CA0181709070892B61F016950F
:101010000795F794E79480E090E0A0E0B0E8E82A34
:10102000F92A0A2B1B2B76956795579547952F5FC5
:101030003F4F77FDE7CF0CC0440F551F661F771F4A
:1010400017FD4160EE0CFF1C001F111F21503040A6
:10105000403090E0590790E0690790E4790760F329
:101060002B8F3C8FDB01CA018F779070A070B0701E
:1010700080349105A105B10561F447FD0AC0E11472
:10108000F1040105110529F0405C5F4F6F4F7F4F60
:1010900040781A8EFE1711F081E08A8F4D8F5E8F97
:1010A0006F8F78A383E0898FCE0149960E94540AFE
:1010B000A096E2E10C94360CA8E1B0E0E2E6F8E09C
:1010C0000C94220C69837A838B839C832D833E83CB
:1010D0004F835887B9E0EB2EF12CEC0EFD1ECE01AC
:1010E0000196B7010E94290B8E010F5E1F4FCE01A2
:1010F0000596B8010E94290B2985223008F47EC08C
:101100003989323010F4B8017CC08A859A898927E0
:101110008A87243011F0223031F4231709F06EC091
:1011200063EA71E06EC0343039F41D861E861F8676
:10113000188A1C861B8604C0323021F484E089871B
:10114000B7015FC02B853C858B899C89281B390B97
:101150003C872B87ED84FE840F851889AD88BE8877
:10116000CF88D88CEA14FB040C051D0540F4EE0C66
:10117000FF1C001F111F215030403C872B8720E0AF
:1011800030E040E050E080E090E0A0E0B0E460E0DB
:1011900070E0EA14FB040C051D0540F0282B392BE8
:1011A0004A2B5B2BEA18FB080C091D09B695A7957D
:1011B00097958795EE0CFF1C001F111F6F5F7F4FE7
:1011C0006F31710531F7DA01C9018F779070A07026
:1011D000B07080349105A105B10561F427FD0AC006
:1011E000E114F1040105110529F0205C3F4F4F4F38
:1011F0005F4F20782D873E874F87588BBE01675FF2
:101200007F4FCB010E94540A6896EAE00C943E0C92
:10121000A8E1B0E0EEE0F9E00C94260C69837A8353
:101220008B839C832D833E834F83588789E0E82EF0
:10123000F12CEC0EFD1ECE010196B7010E94290B88
:101240008E010F5E1F4FCE010596B8010E94290B3B
:101250008985823040F08989823028F0C701B80141
:101260000E94A10B01C08FEF6896E6E00C94420C3F
:10127000ACE0B0E0EEE3F9E00C942A0C69837A83E9
:101280008B839C83CE010196BE016B5F7F4F0E94D2
:10129000290B8D81823061F1823050F1843021F44C
:1012A0008E81882351F12EC02F81388537FD20C0D3
:1012B0006E812F3131051CF06623F9F023C08EE1D9
:1012C00090E0821B930B29853A854B855C8504C091
:1012D00056954795379527958A95D2F76623B1F0AD
:1012E00050954095309521953F4F4F4F5F4F0EC021
:1012F00020E030E040E050E009C02FEF3FEF4FEF3B
:101300005FE704C020E030E040E050E8B901CA01E6
:101310002C96E2E00C94460CA8E0B0E0E2E9F9E09B
:101320000C94220C7B018C016115710581059105DE
:1013300019F482E0898360C083E089838EE1C82E3E
:10134000D12CDC82CB82ED82FE820F831887C8010C
:10135000B7010E94050AFC013197F7FF3BC0222725
:1013600033272E1B3F0B57016801022E04C0D69471
:10137000C794B794A7940A94D2F740E050E060E095
:1013800070E081E090E0A0E0B0E004C0880F991F19
:10139000AA1FBB1F2A95D2F70197A109B1098E2177
:1013A0009F21A023B1230097A105B10521F041E0C1
:1013B00050E060E070E04A295B296C297D294D836B
:1013C0005E836F8378878EE190E08E1B9F0B9C83FA
:1013D0008B8312C0309781F00E2E04C0EE0CFF1CE0
:1013E000001F111F0A94D2F7ED82FE820F83188727
:1013F000CE1ADF0ADC82CB821A82CE0101960E94CD
:10140000540A2896EAE00C943E0CEF92FF920F9358
:101410001F937B018C0180E0E81680E0F80681E0F4
:10142000080780E0180788F48FEFE816F10401053B
:10143000110531F028F088E090E0A0E0B0E017C09E
:1014400080E090E0A0E0B0E012C080E0E81680E02C
:10145000F80680E0080781E0180728F088E190E0AE
:10146000A0E0B0E004C080E190E0A0E0B0E020E2C5
:1014700030E040E050E0281B390B4A0B5B0B04C006
:1014800016950795F794E7948A95D2F7F701E555F5
:10149000FE4F8081281B310941095109C9011F9163
:1014A0000F91FF90EF900895DF92EF92FF920F93CC
:1014B0001F93FC01E480F58006811781D180808133
:1014C000823048F480E090E0A0E1B0E0E82AF92A18
:1014D0000A2B1B2BA5C0843009F49FC0823021F455
:1014E000EE24FF24870105C0E114F1040105110574
:1014F00019F4E0E0F0E096C0628173819FEF6238FA
:1015000079070CF05BC022E83FEF261B370B2A312E
:1015100031052CF020E030E040E050E02AC0B80176
:10152000A701022E04C076956795579547950A94B2
:10153000D2F781E090E0A0E0B0E004C0880F991FEE
:10154000AA1FBB1F2A95D2F70197A109B1098E21C5
:101550009F21A023B1230097A105B10521F081E0CF
:1015600090E0A0E0B0E09A01AB01282B392B4A2B88
:101570005B2BDA01C9018F779070A070B070803456
:101580009105A105B10539F427FF09C0205C3F4F43
:101590004F4F5F4F04C0215C3F4F4F4F5F4FE0E024
:1015A000F0E02030A0E03A07A0E04A07A0E45A07A4
:1015B00010F0E1E0F0E079018A0127C060387105A0
:1015C00064F5FB01E158FF4FD801C7018F77907098
:1015D000A070B07080349105A105B10539F4E7FE23
:1015E0000DC080E490E0A0E0B0E004C08FE390E0A4
:1015F000A0E0B0E0E80EF91E0A1F1B1F17FF05C090
:1016000016950795F794E794319687E01695079518
:10161000F794E7948A95D1F705C0EE24FF2487015B
:10162000EFEFF0E06E2F679566276795902F9F7715
:10163000D794DD24D7948E2F8695492F462B582F8B
:101640005D29B701CA011F910F91FF90EF90DF90C4
:101650000895FC01DB01408151812281622F6F7767
:1016600070E0221F2227221F9381892F880F822B4F
:10167000282F30E0991F9927991F11969C93119755
:1016800021153105A9F5411551056105710511F4C3
:1016900082E037C082E89FEF13969C938E93129757
:1016A0009A01AB0167E0220F331F441F551F6A9553
:1016B000D1F783E08C930DC0220F331F441F551FB9
:1016C00012968D919C911397019713969C938E93EC
:1016D0001297203080E0380780E0480780E4580700
:1016E00058F314962D933D934D935C93179708955B
:1016F0002F3F310579F4411551056105710519F444
:1017000084E08C93089564FF03C081E08C9312C041
:101710001C9210C02F57304013963C932E93129773
:1017200083E08C9387E0440F551F661F771F8A95CF
:10173000D1F7706414964D935D936D937C931797D6
:1017400008951F93DC01FB019C91923008F447C07F
:101750008081823008F443C0943051F411961C917A
:10176000843099F58181682F70E0611B71093FC059
:10177000843021F0923031F48230B9F181818823B4
:1017800089F12DC011961C9111978230F1F0818161
:101790001817D9F412962D913C9113978281938159
:1017A0008217930794F028173907BCF014968D918F
:1017B0009D910D90BC91A02D24813581468157814A
:1017C000281739074A075B0718F4112341F00AC0AC
:1017D00082179307A407B50740F4112319F061E0BD
:1017E00070E005C06FEF7FEF02C060E070E0CB01FA
:1017F0001F910895991B79E004C0991F961708F06E
:10180000961B881F7A95C9F780950895AA1BBB1B64
:1018100051E107C0AA1FBB1FA617B70710F0A61BF0
:10182000B70B881F991F5A95A9F780959095BC0111
:10183000CD0108952F923F924F925F926F927F92C7
:101840008F929F92AF92BF92CF92DF92EF92FF92D0
:101850000F931F93CF93DF93CDB7DEB7CA1BDB0B7C
:101860000FB6F894DEBF0FBECDBF09942A88398821
:1018700048885F846E847D848C849B84AA84B98428
:10188000C884DF80EE80FD800C811B81AA81B98134
:10189000CE0FD11D0FB6F894DEBF0FBECDBFED0148
:1018A0000895CF93DF93BC018230910510F462E07C
:1018B00070E0A091B602B091B702ED01E0E0F0E077
:1018C00040E050E021C0888199818617970769F42C
:1018D0008A819B81309719F09383828304C090930F
:1018E000B7028093B602FE0134C06817790738F456
:1018F0004115510519F08417950708F4AC01FE0154
:101900008A819B819C01E9012097E9F641155105E7
:10191000A9F1CA01861B970B049708F4BA01E0E00D
:10192000F0E02AC08D919C91119784179507F9F4E6
:101930006417750781F412968D919C9113973097D7
:1019400019F09383828304C09093B7028093B60208
:10195000FD0132964FC0CA01861B970BFD01E80FAF
:10196000F91F6193719302978D939C9343C0FD017E
:10197000828193819C01D9011097A1F68091B402D4
:101980009091B502892B41F48091AD029091AE0205
:101990009093B5028093B4024091AF025091B0028F
:1019A0004115510541F44DB75EB78091AB0290915E
:1019B000AC02481B590B2091B4023091B502241798
:1019C0003507B0F4CA01821B930B8617970780F086
:1019D000AB014E5F5F4F8417950750F0420F531FC6
:1019E0005093B5024093B402F9016193719302C020
:1019F000E0E0F0E0CF01DF91CF910895CF93DF9346
:101A0000009709F450C0EC0122971B821A82A09122
:101A1000B602B091B702109709F140E050E0AC1760
:101A2000BD0708F1BB83AA83FE0121913191E20F2A
:101A3000F31FAE17BF0779F48D919C911197280F72
:101A4000391F2E5F3F4F3983288312968D919C91C9
:101A500013979B838A834115510571F4D093B70284
:101A6000C093B60220C012968D919C911397AD0140
:101A7000009711F0DC01D3CFFA01D383C283219107
:101A80003191E20FF31FCE17DF0769F48881998146
:101A9000280F391F2E5F3F4FFA01318320838A813F
:101AA0009B8193838283DF91CF9108956817790793
:101AB00068F4FB01DC01E40FF51FA40FB51F02C0A1
:101AC00002900E9241505040D8F708950C946F0D3B
:101AD000FB01DC0101900D920020E1F70895FB016C
:101AE000DC0102C001900D9241505040D8F708959A
:041AF000F894FFCF98
:101AF400494E54315F7665637400494E54305F76C5
:101B040065637400004572726F72204E4F5F4143EB
:101B14004B3A2054575352203A20004572722054B5
:101B2400575352213D4E4F5F41434B7C20545753F2
:101B3400523A20004572723A2057726974652074D3
:101B44006F20414C20726561642D6F6E6C79206248
:101B540069740A004572723A20496E76616C696450
:101B640020636F6E666967206661756C74206D6FA3
:101B740064650A004572723A20496E76616C696444
:101B840020636F6E762072617465206D6F64650AE0
:101B9400002C03000000000000000000010202030A
:101BA40003030304040404040404040505050505EF
:101BB40005050505050505050505050606060606CC
:101BC40006060606060606060606060606060606B1
:101BD400060606060606060606060607070707079C
:101BE4000707070707070707070707070707070781
:101BF4000707070707070707070707070707070771
:101C04000707070707070707070707070707070760
:101C1400070707070707070707070708080808084B
:101C24000808080808080808080808080808080830
:101C34000808080808080808080808080808080820
:101C44000808080808080808080808080808080810
:101C54000808080808080808080808080808080800
:101C640008080808080808080808080808080808F0
:101C740008080808080808080808080808080808E0
:101C840008080808080808080808080808080808D0
:101C940008080808080808080808082000B802000E
:021CA40000003E
:00000001FF
