:100000000C9434000C9488000C9462000C94510001
:100010000C9451000C9451000C9451000C9451001C
:100020000C9451000C9451000C9451000C9451000C
:100030000C9451000C9451000C9451000C945100FC
:100040000C9451000C9451000C9451000C945100EC
:100050000C9451000C9451000C9451000C945100DC
:100060000C9451000C94510011241FBECFEFD8E026
:10007000DEBFCDBF13E0A0E0B1E0E8E6FBE102C0E7
:1000800005900D92A233B107D9F713E0A2E3B3E0D4
:1000900001C01D92A235B107E1F70E94C4000C9483
:1000A000B20D0C94000014B81AB88FEF8BB985B953
:1000B0000895FC01218130E0908180E0282B392BCC
:1000C000C90108951F920F920FB60F9211242F931A
:1000D0003F934F935F936F937F938F939F93AF93D0
:1000E000BF93EF93FF9380E091E00E949401FF9112
:1000F000EF91BF91AF919F918F917F916F915F91A0
:100100004F913F912F910F900FBE0F901F90189518
:100110001F920F920FB60F9211242F933F934F937C
:100120005F936F937F938F939F93AF93BF93EF935F
:10013000FF938AE091E00E94940180913603882326
:1001400019F084E191E002C083E291E00E94940101
:1001500080913503882319F082E391E002C082E5A3
:1001600091E00E949401FF91EF91BF91AF919F9117
:100170008F917F916F915F914F913F912F910F9050
:100180000FBE0F901F901895CF92DF92FF920F93A2
:100190001F93DF93CF9300D0CDB7DEB787E690E013
:1001A0000E94810114B81AB88FEF8BB985B9E0911C
:1001B0002202F091230282E393E068E440E0099593
:1001C000E0913803F091390386E960E00995E09108
:1001D0004403F091450381E00995E0914003F091DB
:1001E00041038AE090E061E00995E0914003F091DD
:1001F000410389E090E060E00995E0914203F091CD
:10020000430381E00995E0914003F091410388E0C8
:1002100090E060E00995E0913C03F0913D0381E0BE
:100220008E010F5F1F4FB8010995998180E02A81E7
:1002300030E0822B932B0E94BF018AE00E948C0148
:10024000E0914603F09147036EEA77E481EC91E494
:100250000995E0914803F091490366E676E68EEB56
:1002600091E40995F02E012F88ECC82ED12CE09155
:100270003C03F0913D0380E06F2D702F099581E7DD
:1002800091E00E949401E0914A03F0914B038F2D7D
:10029000902F099564E670E00E945B0CCB010E94F0
:1002A00086028EE20E948C01E0914A03F0914B039A
:1002B0008F2D902F099564E670E00E945B0C0E94E0
:1002C00086028EE791E00E949401E0913E03F09156
:1002D0003F0309950E94A10189E891E00E949401E1
:1002E00080913303909134030E9494018AE00E942C
:1002F0008C0188E893E1F6013197F1F70197D9F77E
:10030000B6CF9093C5008093C40088E18093C1006C
:100310008EE08093C2000895982F8091C00085FFE1
:10032000FCCF9093C6000895FC0107C08091C000E7
:1003300085FFFCCF9093C600319690819923B1F749
:100340000895382F32953F70482F4F703A3010F48F
:1003500020E301C027E34A3010F490E301C097E3A3
:100360008091C00085FFFCCF230F2093C6008091B1
:10037000C00085FFFCCF940F9093C60008951F9393
:10038000182F892F0E94A101812F0E94A1011F9186
:100390000895EF92FF920F931F937B018C01C80188
:1003A000AA27BB270E94BF01C7010E94BF011F915E
:1003B0000F91FF90EF9008958091C00087FFFCCFD0
:1003C0008091C60090E00895282F64E60E944F0CAB
:1003D000392F822F0E944F0C282F205D832F6AE037
:1003E0000E944F0C482F405D832F0E944F0C2033FA
:1003F00039F08091C00085FFFCCF2093C60002C079
:10040000403331F08091C00085FFFCCF4093C6009F
:100410008091C00085FFFCCF905D9093C600089549
:10042000982F87FF08C08091C00085FFFCCF8DE228
:100430008093C6009195892F0E94E40108951F932F
:100440009C0160E177E20E945B0C482FE92FC90113
:1004500060E177E20E945B0C162F105D842F9E2FC7
:1004600068EE73E00E945B0C9C01842F9E2F68EE67
:1004700073E00E945B0CF62FF05DC90164E670E04A
:100480000E945B0C482FE92FC90164E670E00E94CE
:100490005B0C362F305D842F9E2F6AE070E00E9447
:1004A0005B0C262F205D842F9E2F6AE070E00E9457
:1004B0005B0C982F103339F08091C00085FFFCCF82
:1004C0001093C60002C0F03339F08091C00085FF60
:1004D000FCCFF093C60002C0303339F08091C000E9
:1004E00085FFFCCF3093C60002C0203331F08091ED
:1004F000C00085FFFCCF2093C6008091C00085FF1F
:10050000FCCF905D9093C6001F9108959C0197FFCA
:100510000AC08091C00085FFFCCF8DE28093C600A9
:10052000309521953F4FC9010E941F0208951092F6
:10053000B90086E98093B800ECEBF0E0808184603C
:1005400080830895DF93CF9300D00F92CDB7DEB7AD
:1005500020E030E040E851E40E94B7070E948D0996
:10056000E0914C03F0914D038581882331F023E025
:10057000660F771F2A95E1F705C094E0660F771F95
:100580009A95E1F783E08983872F992787FD9A95CC
:100590008A836B830084F185E02DCE01019663E0B0
:1005A00070E009950F900F900F90CF91DF91089513
:1005B000DF93CF9300D00F92CDB7DEB720E030E0CD
:1005C00040E851E40E94B7070E948D09E0914C0376
:1005D000F0914D038581882331F053E0660F771F3A
:1005E0005A95E1F705C044E0660F771F4A95E1F799
:1005F00082E08983872F992787FD9A958A836B8369
:100600000084F185E02DCE01019663E070E009954C
:100610000F900F900F90CF91DF910895FC01A09162
:100620004C03B0914D0315968C916181E081882334
:1006300091F066956695669570E08E2F90E0F5E0F6
:10064000880F991FFA95E1F7682B792B80E16030CC
:10065000780790F010C062956F7070E08E2F90E078
:10066000E4E0880F991FEA95E1F7682B792B88E081
:100670006030780708F0706F80E090E00E94E10938
:1006800020E030E048EC50E40E94B7070E94E1050A
:10069000CB010895DF93CF930F92CDB7DEB7898357
:1006A000E0914C03F0914D030084F185E02DCE01E3
:1006B000019661E070E009950F90CF91DF91089568
:1006C00084EE8093BC00089584ED8093BC0008956F
:1006D00084EC8093BC000895CF92DF92EF92FF925A
:1006E0000F931F93F82EE92EC62ED42E81E490E0AE
:1006F0000E94A60C182F092F65E971E00E94AB0D2E
:10070000EF2DFE2DF0934D03E0934C03D582148220
:100710001382C0821183028387E992E097838683E4
:1007200087EA94E0918780878DE194E093878287C0
:100730008FE894E0958784878DEF94E0978786878C
:1007400082EB95E0918B808B83E895E0938B828B95
:1007500082EA92E0958B848B88ED92E0978B868B72
:100760008EE093E0918F808F85E08093690083E035
:100770008DBB78941F910F91FF90EF90DF90CF90F9
:100780000895DF93CF9300D0CDB7DEB72091B900A5
:1007900030E0287F307090E0E0914C03F0914D0301
:1007A0002817390729F48181928166E971E004C034
:1007B000818192816CEA71E00E94AB0D3091B900A9
:1007C00032953F709091B9009F703A3010F420E359
:1007D00001C027E39A3010F480E301C087E3890F5A
:1007E0008A83E0914C03F0914D0381819281230F24
:1007F00029834A96BE016F5F7F4F0E94AB0DE09147
:100800004C03F0914D03818192814B96BE016E5F46
:100810007F4F0E94AB0D0F900F90CF91DF91089505
:100820002091B90030E0287F307090E02817390718
:1008300019F0862F0E94C1030895EF92FF920F9343
:100840001F93CF93DF93F62EE72E0E944A0384EE88
:100850008093BC008091BC0087FFFCCF8091B900E1
:10086000887F883041F08091B900887F803119F00D
:1008700080E00E94C103E0914C03F0914D03808120
:10088000880F81608093BB0084EC8093BC008091D2
:10089000BC0087FFFCCF80E468E40E9410048F2D29
:1008A0009E2D9C01E90110E004EC0093BC008091B6
:1008B000BC0087FFFCCF8091BB0088838091B9008A
:1008C000887F803541F08091B900887F883519F0A4
:1008D00088E30E94C1031F5F2196123031F784ED37
:1008E0008093BC00E0914C03F0914D03008CF18D9E
:1008F000E02D8F2D9E2D0995A0E0B0E0BC01CD012B
:100900000E94E10920E030E048EC52E40E94B10886
:10091000DF91CF911F910F91FF90EF900895DF939A
:10092000CF9300D0CDB7DEB781E0BE016F5F7F4FC0
:100930000E941D048A8190E0A5E096958795AA956E
:10094000E1F781700F900F90CF91DF910895DF92C2
:10095000EF92FF920F931F93CF93DF937C018B0154
:1009600084EE8093BC008091BC0087FFFCCF809117
:10097000B900887F883041F08091B900887F80314C
:1009800019F080E00E94C103E0914C03F0914D0307
:10099000808190E0880F991F8093BB0084EC809346
:1009A000BC008091BC0087FFFCCF88E160E20E9420
:1009B0001004C0E0D0E0B4ECDB2E11C0F701EC0F66
:1009C000FD1F80818093BB00D092BC008091BC0051
:1009D00087FFFCCF88E260E20E9410042196C017D6
:1009E000D10764F384ED8093BC00DF91CF911F9118
:1009F0000F91FF90EF90DF900895FF920F931F9358
:100A0000DF93CF9300D000D00F92CDB7DEB78C012B
:100A1000F62E81E0BE016F5F7F4F0E941D040530FE
:100A2000110559F4E0914C03F0914D0381819281BD
:100A300065EC71E00E94AB0D5BC049812A814C835B
:100A40002D8308301105D0F0980128503040FF2048
:100A500051F081E090E002C0880F991F2A95E2F7DB
:100A6000482B4C8323C081E090E002C0880F991F7F
:100A70002A95E2F7809584238C8318C0FF2059F0D3
:100A800081E090E0002E02C0880F991F0A94E2F7DF
:100A9000282B2D830BC081E090E0002E02C0880F30
:100AA000991F0A94E2F7809582238D8381E08B83DE
:100AB000CE01039663E070E00E94A70404301105A4
:100AC00031F4E0914C03F0914D03F58211C00A30EE
:100AD000110531F4E0914C03F0914D03F38208C00D
:100AE0000930110529F4E0914C03F0914D03F48293
:100AF0000F900F900F900F900F90CF91DF911F915B
:100B00000F91FF900895813021F48BE090E060E038
:100B10000BC0823021F48BE090E060E010C08430A4
:100B200049F48BE090E061E00E94FD048CE090E0ED
:100B300060E00AC0883059F48BE090E061E00E94E8
:100B4000FD048CE090E061E00E94FD040895E091D6
:100B50004C03F0914D038181928165EE71E00E941A
:100B6000AB0D0895882321F48DE090E060E00BC088
:100B7000813021F48DE090E060E010C0843049F4D1
:100B80008DE090E061E00E94FD048EE090E060E086
:100B90000AC0883059F48DE090E061E00E94FD04C5
:100BA0008EE090E061E00E94FD040895E0914C0326
:100BB000F0914D038181928165E072E00E94AB0D5E
:100BC0000895EF92FF920F931F937B018C0120E019
:100BD00030E040E05FE40E945D0988238CF0C801AA
:100BE000B70120E030E040E05FE40E9459070E9436
:100BF0008D099B01AC01205030404040504806C058
:100C0000C801B7010E948D099B01AC01B901CA015D
:100C10001F910F91FF90EF900895A0E0B0E0E3E105
:100C2000F6E00C946F0CDC012B01FA019C919230E0
:100C300008F439C1EB018881823008F433C1943063
:100C400069F4843009F02FC111969C911197898124
:100C5000981709F428C1A4E2B2E025C1843009F450
:100C600021C18230A9F4923009F01DC19A01AD0171
:100C700088E0EA010990AE01E90109929E018150E4
:100C8000C1F7E201898111969C918923818308C172
:100C9000923009F407C112962D903C901397EB0106
:100CA0008A819B811496AD90BD90CD90DC90179772
:100CB000EC80FD800E811F819101281B390BB90149
:100CC00037FF04C066277727621B730B60327105FC
:100CD0000CF061C0121613066CF537014801062EA0
:100CE00004C096948794779467940A94D2F721E08D
:100CF00030E040E050E004C0220F331F441F551F76
:100D00006A95D2F721503040404050402E213F217B
:100D100040235123211531054105510521F021E0E2
:100D200030E040E050E079018A01E628F728082900
:100D300019293CC0232BD1F1260E371E350146015F
:100D4000062E04C096948794779467940A94D2F7F9
:100D500021E030E040E050E004C0220F331F441F88
:100D6000551F6A95D2F721503040404050402A210B
:100D70003B214C215D21211531054105510521F013
:100D800021E030E040E050E059016A01A628B72890
:100D9000C828D9280BC0821593052CF01C01AA2461
:100DA000BB24650103C0EE24FF24870111969C91AA
:100DB000D20111968C91981709F445C0992339F006
:100DC000A80197012A193B094C095D0906C0A60133
:100DD00095012E193F09400B510B57FD08C0118298
:100DE0003382228224833583468357831DC081E06A
:100DF00081833382228288279927DC01821B930B0F
:100E0000A40BB50B84839583A683B7830DC0220FF3
:100E1000331F441F551F24833583468357838281A4
:100E20009381019793838283248135814681578101
:100E3000DA01C9010197A109B1098F5F9F4FAF4F37
:100E4000BF4328F30BC0918333822282EA0CFB1C40
:100E50000C1D1D1DE482F5820683178383E08083C9
:100E6000248135814681578157FF1AC0C901AA27BD
:100E700097FDA095BA2F81709070A070B0705695B4
:100E8000479537952795822B932BA42BB52B8483DD
:100E90009583A683B783828193810196938382830E
:100EA000DF0101C0D201CD01CDB7DEB7E2E10C9484
:100EB0008B0CA0E2B0E0EFE5F7E00C947B0C6983CB
:100EC0007A838B839C832D833E834F835887E9E00D
:100ED000EE2EF12CEC0EFD1ECE010196B7010E9404
:100EE0007E0B8E010F5E1F4FCE010596B8010E944A
:100EF0007E0B8A8991E089278A8BC701B801AE01F0
:100F0000475E5F4F0E940D060E94A90AA096E6E088
:100F10000C94970CA0E2B0E0E0E9F7E00C947B0CB5
:100F200069837A838B839C832D833E834F83588789
:100F3000F9E0EF2EF12CEC0EFD1ECE010196B7016B
:100F40000E947E0B8E010F5E1F4FCE010596B801E9
:100F50000E947E0BC701B801AE01475E5F4F0E9441
:100F60000D060E94A90AA096E6E00C94970CA0E258
:100F7000B0E0EDEBF7E00C946F0C69837A838B8320
:100F80009C832D833E834F835887CE010196BE01FB
:100F9000675F7F4F0E947E0BCE010596BE016F5E9C
:100FA0007F4F0E947E0B9985923088F0898982302C
:100FB000C8F0943019F4823051F404C0843029F41C
:100FC000923081F484E292E0C6C0923049F420E08D
:100FD0009A858A89981321E02A87CE010996BBC099
:100FE000823049F420E09A858A89981321E02A8B7F
:100FF000CE014196B0C02D843E844F8458886D88C0
:101000007E888F88988CEE24FF248701AA24BB2435
:10101000650140E050E060E070E0E0E0F0E0C10138
:1010200081709070892BE9F0E60CF71C081D191DE2
:101030009A01AB012A0D3B1D4C1D5D1D80E090E027
:10104000A0E0B0E0E614F7040805190520F481E0FB
:1010500090E0A0E0B0E0BA01A901480F591F6A1F53
:101060007B1FAA0CBB1CCC1CDD1C97FE08C081E0BA
:1010700090E0A0E0B0E0A82AB92ACA2ADB2A31967B
:10108000E032F10549F0660C771C881C991C5694D7
:10109000479437942794C3CFFA85EA892B893C89F2
:1010A0008B859C85280F391F2E5F3F4F17C0CA01C3
:1010B00081709070892B61F016950795F794E794ED
:1010C00080E090E0A0E0B0E8E82AF92A0A2B1B2B88
:1010D00076956795579547952F5F3F4F77FDE7CFFB
:1010E0000CC0440F551F661F771F17FD4160EE0CA3
:1010F000FF1C001F111F21503040403090E0590765
:1011000090E0690790E4790760F32B8F3C8FDB0157
:10111000CA018F779070A070B07080349105A105DE
:10112000B10561F447FD0AC0E114F10401051105A0
:1011300029F0405C5F4F6F4F7F4F40781A8EFE174B
:1011400011F081E08A8F4D8F5E8F6F8F78A383E0DF
:10115000898FCE0149960E94A90AA096E2E10C94DB
:101160008B0CA8E1B0E0E7EBF8E00C94770C698316
:101170007A838B839C832D833E834F835887B9E08A
:10118000EB2EF12CEC0EFD1ECE010196B7010E9454
:101190007E0B8E010F5E1F4FCE010596B8010E9497
:1011A0007E0B2985223008F47EC03989323010F454
:1011B000B8017CC08A859A8989278A87243011F0F2
:1011C000223031F4231709F06EC064E272E06EC081
:1011D000343039F41D861E861F86188A1C861B86AD
:1011E00004C0323021F484E08987B7015FC02B85C9
:1011F0003C858B899C89281B390B3C872B87ED8488
:10120000FE840F851889AD88BE88CF88D88CEA14F3
:10121000FB040C051D0540F4EE0CFF1C001F111F04
:10122000215030403C872B8720E030E040E050E008
:1012300080E090E0A0E0B0E460E070E0EA14FB043D
:101240000C051D0540F0282B392B4A2B5B2BEA1887
:10125000FB080C091D09B695A79597958795EE0C87
:10126000FF1C001F111F6F5F7F4F6F31710531F73A
:10127000DA01C9018F779070A070B0708034910549
:10128000A105B10561F427FD0AC0E114F1040105CF
:10129000110529F0205C3F4F4F4F5F4F20782D877D
:1012A0003E874F87588BBE01675F7F4FCB010E94FF
:1012B000A90A6896EAE00C94930CA8E1B0E0E3E692
:1012C000F9E00C947B0C69837A838B839C832D8358
:1012D0003E834F83588789E0E82EF12CEC0EFD1EEB
:1012E000CE010196B7010E947E0B8E010F5E1F4F4B
:1012F000CE010596B8010E947E0B8985823040F0B0
:101300008989823028F0C701B8010E94F60B01C01C
:101310008FEF6896E6E00C94970CACE0B0E0E3E960
:10132000F9E00C947F0C69837A838B839C83CE01D4
:101330000196BE016B5F7F4F0E947E0B8D818230D4
:1013400061F1823050F1843021F48E81882351F193
:101350002EC02F81388537FD20C06E812F31310599
:101360001CF06623F9F023C08EE190E0821B930B02
:1013700029853A854B855C8504C0569547953795F8
:1013800027958A95D2F76623B1F050954095309510
:1013900021953F4F4F4F5F4F0EC020E030E040E0BF
:1013A00050E009C02FEF3FEF4FEF5FE704C020E0B0
:1013B00030E040E050E8B901CA012C96E2E00C941C
:1013C0009B0CA8E0B0E0E7EEF9E00C94770C7B0111
:1013D0008C01611571058105910519F482E08983FD
:1013E00060C083E089838EE1C82ED12CDC82CB8261
:1013F000ED82FE820F831887C801B7010E945A0A46
:10140000FC013197F7FF3BC0222733272E1B3F0BF0
:1014100057016801022E04C0D694C794B794A794CC
:101420000A94D2F740E050E060E070E081E090E0A4
:10143000A0E0B0E004C0880F991FAA1FBB1F2A9527
:10144000D2F70197A109B1098E219F21A023B123D1
:101450000097A105B10521F041E050E060E070E0A7
:101460004A295B296C297D294D835E836F837887A8
:101470008EE190E08E1B9F0B9C838B8312C0309774
:1014800081F00E2E04C0EE0CFF1C001F111F0A94E9
:10149000D2F7ED82FE820F831887CE1ADF0ADC8234
:1014A000CB821A82CE0101960E94A90A2896EAE010
:1014B0000C94930CEF92FF920F931F937B018C017E
:1014C00080E0E81680E0F80681E0080780E0180771
:1014D00088F48FEFE816F1040105110531F028F0CA
:1014E00088E090E0A0E0B0E017C080E090E0A0E0ED
:1014F000B0E012C080E0E81680E0F80680E008075F
:1015000081E0180728F088E190E0A0E0B0E004C096
:1015100080E190E0A0E0B0E020E230E040E050E088
:10152000281B390B4A0B5B0B04C016950795F794E3
:10153000E7948A95D2F7F701E45DFD4F8081281B7F
:10154000310941095109C9011F910F91FF90EF9095
:101550000895DF92EF92FF920F931F93FC01E480B6
:10156000F58006811781D1808081823048F480E047
:1015700090E0A0E1B0E0E82AF92A0A2B1B2BA5C0D5
:10158000843009F49FC0823021F4EE24FF248701C7
:1015900005C0E114F1040105110519F4E0E0F0E0E3
:1015A00096C0628173819FEF623879070CF05BC04F
:1015B00022E83FEF261B370B2A3131052CF020E0C3
:1015C00030E040E050E02AC0B801A701022E04C07C
:1015D00076956795579547950A94D2F781E090E004
:1015E000A0E0B0E004C0880F991FAA1FBB1F2A9576
:1015F000D2F70197A109B1098E219F21A023B12320
:101600000097A105B10521F081E090E0A0E0B0E0F5
:101610009A01AB01282B392B4A2B5B2BDA01C9012C
:101620008F779070A070B07080349105A105B105DE
:1016300039F427FF09C0205C3F4F4F4F5F4F04C074
:10164000215C3F4F4F4F5F4FE0E0F0E02030A0E0E3
:101650003A07A0E04A07A0E45A0710F0E1E0F0E002
:1016600079018A0127C06038710564F5FB01E158F2
:10167000FF4FD801C7018F779070A070B070803491
:101680009105A105B10539F4E7FE0DC080E490E0B5
:10169000A0E0B0E004C08FE390E0A0E0B0E0E80E8E
:1016A000F91E0A1F1B1F17FF05C016950795F79413
:1016B000E794319687E016950795F794E7948A9515
:1016C000D1F705C0EE24FF248701EFEFF0E06E2F85
:1016D000679566276795902F9F77D794DD24D794D9
:1016E0008E2F8695492F462B582F5D29B701CA01A9
:1016F0001F910F91FF90EF90DF900895FC01DB01A7
:10170000408151812281622F6F7770E0221F222752
:10171000221F9381892F880F822B282F30E0991F59
:101720009927991F11969C93119721153105A9F5B9
:10173000411551056105710511F482E037C082E859
:101740009FEF13969C938E9312979A01AB0167E0DB
:10175000220F331F441F551F6A95D1F783E08C93E6
:101760000DC0220F331F441F551F12968D919C915F
:101770001397019713969C938E931297203080E0D5
:10178000380780E0480780E4580758F314962D93F3
:101790003D934D935C93179708952F3F310579F44E
:1017A000411551056105710519F484E08C93089584
:1017B00064FF03C081E08C9312C01C9210C02F57AD
:1017C000304013963C932E93129783E08C9387E0DE
:1017D000440F551F661F771F8A95D1F770641496C2
:1017E0004D935D936D937C93179708951F93DC0140
:1017F000FB019C91923008F447C08081823008F44C
:1018000043C0943051F411961C91843099F5818134
:10181000682F70E0611B71093FC0843021F0923065
:1018200031F48230B9F18181882389F12DC011967C
:101830001C9111978230F1F081811817D9F412961A
:101840002D913C911397828193818217930794F095
:1018500028173907BCF014968D919D910D90BC917D
:10186000A02D2481358146815781281739074A07E1
:101870005B0718F4112341F00AC082179307A407ED
:10188000B50740F4112319F061E070E005C06FEF77
:101890007FEF02C060E070E0CB011F910895991BBB
:1018A00079E004C0991F961708F0961B881F7A9557
:1018B000C9F780950895AA1BBB1B51E107C0AA1F59
:1018C000BB1FA617B70710F0A61BB70B881F991FE1
:1018D0005A95A9F780959095BC01CD0108952F9256
:1018E0003F924F925F926F927F928F929F92AF92B0
:1018F000BF92CF92DF92EF92FF920F931F93CF93FD
:10190000DF93CDB7DEB7CA1BDB0B0FB6F894DEBF93
:101910000FBECDBF09942A88398848885F846E84B9
:101920007D848C849B84AA84B984C884DF80EE8003
:10193000FD800C811B81AA81B981CE0FD11D0FB60C
:10194000F894DEBF0FBECDBFED010895CF93DF93B6
:10195000BC018230910510F462E070E0A091500368
:10196000B0915103ED01E0E0F0E040E050E021C033
:10197000888199818617970769F48A819B813097BE
:1019800019F09383828304C0909351038093500392
:10199000FE0134C06817790738F44115510519F074
:1019A0008417950708F4AC01FE018A819B819C0194
:1019B000E9012097E9F641155105A9F1CA01861BF5
:1019C000970B049708F4BA01E0E0F0E02AC08D918B
:1019D0009C91119784179507F9F46417750781F4A2
:1019E00012968D919C911397309719F0938382836F
:1019F00004C09093510380935003FD0132964FC071
:101A0000CA01861B970BFD01E80FF91F61937193C3
:101A100002978D939C9343C0FD01828193819C0129
:101A2000D9011097A1F680914E0390914F03892B15
:101A300041F480912E0390912F0390934F03809354
:101A40004E0340913003509131034115510541F44B
:101A50004DB75EB780912C0390912D03481B590B15
:101A600020914E0330914F0324173507B0F4CA017B
:101A7000821B930B8617970780F0AB014E5F5F4F79
:101A80008417950750F0420F531F50934F03409314
:101A90004E03F9016193719302C0E0E0F0E0CF01E1
:101AA000DF91CF910895CF93DF93009709F450C051
:101AB000EC0122971B821A82A0915003B09151032E
:101AC000109709F140E050E0AC17BD0708F1BB8367
:101AD000AA83FE0121913191E20FF31FAE17BF07D8
:101AE00079F48D919C911197280F391F2E5F3F4FEC
:101AF0003983288312968D919C9113979B838A83B7
:101B00004115510571F4D0935103C093500320C087
:101B100012968D919C911397AD01009711F0DC0105
:101B2000D3CFFA01D383C28321913191E20FF31F06
:101B3000CE17DF0769F488819981280F391F2E5F3E
:101B40003F4FFA01318320838A819B819383828373
:101B5000DF91CF910895FB01DC0101900D920020EF
:081B6000E1F70895F894FFCFAE
:101B6800494E54315F7665637400494E54305F7650
:101B780065637400696E74657272757074206D6F38
:101B8800646500636F6D706172746F72206D6F644D
:101B9800650054656D707261747572652077656E45
:101BA800742061626F76652054484947485F524502
:101BB800470054656D707261747572652077656E43
:101BC800742062656C6F7720544C4F575F524547BD
:101BD8000054656D707261747572653A2000207CDE
:101BE80020416C6572743A2000207C205374617423
:101BF80075733A2000004572726F72204E4F5F4134
:101C0800434B3A2054575352203A200045727220D1
:101C180054575352213D4E4F5F41434B7C205457FC
:101C280053523A20004572723A20577269746520FF
:101C3800746F20414C20726561642D6F6E6C792041
:101C48006269740A004572723A20496E76616C695D
:101C58006420636F6E666967206661756C74206DB9
:101C68006F64650A004572723A20496E76616C6944
:101C78006420636F6E762072617465206D6F646591
:101C88000A006C03000000000000000000010202CE
:101C980003030303040404040404040405050505FC
:101CA80005050505050505050505050506060606D8
:101CB80006060606060606060606060606060606BC
:101CC80006060606060606060606060607070707A8
:101CD800070707070707070707070707070707078C
:101CE800070707070707070707070707070707077C
:101CF800070707070707070707070707070707076C
:101D08000707070707070707070707070808080857
:101D1800080808080808080808080808080808083B
:101D2800080808080808080808080808080808082B
:101D3800080808080808080808080808080808081B
:101D4800080808080808080808080808080808080B
:101D580008080808080808080808080808080808FB
:101D680008080808080808080808080808080808EB
:101D780008080808080808080808080808080808DB
:101D88000808080808080808080808082000520376
:021D9800000049
:00000001FF
